{
  "contractName": "DeepTokenSale",
  "abi": [
    {
      "inputs": [
        {
          "internalType": "contract DeepToken",
          "name": "_tokenContract",
          "type": "address"
        },
        {
          "internalType": "uint256",
          "name": "_tokenPrice",
          "type": "uint256"
        }
      ],
      "stateMutability": "nonpayable",
      "type": "constructor"
    },
    {
      "anonymous": false,
      "inputs": [
        {
          "indexed": false,
          "internalType": "address",
          "name": "_buyer",
          "type": "address"
        },
        {
          "indexed": false,
          "internalType": "uint256",
          "name": "_amount",
          "type": "uint256"
        }
      ],
      "name": "Sell",
      "type": "event"
    },
    {
      "inputs": [],
      "name": "tokenContract",
      "outputs": [
        {
          "internalType": "contract DeepToken",
          "name": "",
          "type": "address"
        }
      ],
      "stateMutability": "view",
      "type": "function",
      "constant": true
    },
    {
      "inputs": [],
      "name": "tokenPrice",
      "outputs": [
        {
          "internalType": "uint256",
          "name": "",
          "type": "uint256"
        }
      ],
      "stateMutability": "view",
      "type": "function",
      "constant": true
    },
    {
      "inputs": [],
      "name": "tokenSold",
      "outputs": [
        {
          "internalType": "uint256",
          "name": "",
          "type": "uint256"
        }
      ],
      "stateMutability": "view",
      "type": "function",
      "constant": true
    },
    {
      "inputs": [
        {
          "internalType": "uint256",
          "name": "_numberOfTokens",
          "type": "uint256"
        }
      ],
      "name": "buyTokens",
      "outputs": [],
      "stateMutability": "payable",
      "type": "function",
      "payable": true
    },
    {
      "inputs": [],
      "name": "endSale",
      "outputs": [],
      "stateMutability": "nonpayable",
      "type": "function"
    }
  ],
  "bytecode": "0x608060405234801561001057600080fd5b50604051610a52380380610a528339818101604052810190610032919061016c565b336000806101000a81548173ffffffffffffffffffffffffffffffffffffffff021916908373ffffffffffffffffffffffffffffffffffffffff16021790555081600160006101000a81548173ffffffffffffffffffffffffffffffffffffffff021916908373ffffffffffffffffffffffffffffffffffffffff1602179055508060028190555050506101ac565b600080fd5b600073ffffffffffffffffffffffffffffffffffffffff82169050919050565b60006100f1826100c6565b9050919050565b6000610103826100e6565b9050919050565b610113816100f8565b811461011e57600080fd5b50565b6000815190506101308161010a565b92915050565b6000819050919050565b61014981610136565b811461015457600080fd5b50565b60008151905061016681610140565b92915050565b60008060408385031215610183576101826100c1565b5b600061019185828601610121565b92505060206101a285828601610157565b9150509250929050565b610897806101bb6000396000f3fe60806040526004361061004a5760003560e01c80633610724e1461004f578063380d831b1461006b578063519ee19e1461008257806355a373d6146100ad5780637ff9b596146100d8575b600080fd5b6100696004803603810190610064919061055f565b610103565b005b34801561007757600080fd5b506100806102c0565b005b34801561008e57600080fd5b506100976104bb565b6040516100a4919061059b565b60405180910390f35b3480156100b957600080fd5b506100c26104c1565b6040516100cf9190610635565b60405180910390f35b3480156100e457600080fd5b506100ed6104e7565b6040516100fa919061059b565b60405180910390f35b61010f816002546104ed565b341461011a57600080fd5b80600160009054906101000a900473ffffffffffffffffffffffffffffffffffffffff1673ffffffffffffffffffffffffffffffffffffffff1663b144adfb306040518263ffffffff1660e01b81526004016101769190610671565b602060405180830381865afa158015610193573d6000803e3d6000fd5b505050506040513d601f19601f820116820180604052508101906101b791906106a1565b10156101c257600080fd5b600160009054906101000a900473ffffffffffffffffffffffffffffffffffffffff1673ffffffffffffffffffffffffffffffffffffffff1663a9059cbb33836040518363ffffffff1660e01b815260040161021f9291906106ce565b6020604051808303816000875af115801561023e573d6000803e3d6000fd5b505050506040513d601f19601f82011682018060405250810190610262919061072f565b61026b57600080fd5b806003600082825461027d919061078b565b925050819055507f5e5e995ce3133561afceaa51a9a154d5db228cd7525d34df5185582c18d3df0933826040516102b59291906106ce565b60405180910390a150565b60008054906101000a900473ffffffffffffffffffffffffffffffffffffffff1673ffffffffffffffffffffffffffffffffffffffff163373ffffffffffffffffffffffffffffffffffffffff161461031857600080fd5b600160009054906101000a900473ffffffffffffffffffffffffffffffffffffffff1673ffffffffffffffffffffffffffffffffffffffff1663a9059cbb60008054906101000a900473ffffffffffffffffffffffffffffffffffffffff16600160009054906101000a900473ffffffffffffffffffffffffffffffffffffffff1673ffffffffffffffffffffffffffffffffffffffff1663b144adfb306040518263ffffffff1660e01b81526004016103d29190610671565b602060405180830381865afa1580156103ef573d6000803e3d6000fd5b505050506040513d601f19601f8201168201806040525081019061041391906106a1565b6040518363ffffffff1660e01b81526004016104309291906106ce565b6020604051808303816000875af115801561044f573d6000803e3d6000fd5b505050506040513d601f19601f82011682018060405250810190610473919061072f565b61047c57600080fd5b60008060009054906101000a900473ffffffffffffffffffffffffffffffffffffffff1690508073ffffffffffffffffffffffffffffffffffffffff16ff5b60035481565b600160009054906101000a900473ffffffffffffffffffffffffffffffffffffffff1681565b60025481565b60008082148061051557508183838561050691906107bf565b9250826105139190610830565b145b61051e57600080fd5b92915050565b600080fd5b6000819050919050565b61053c81610529565b811461054757600080fd5b50565b60008135905061055981610533565b92915050565b60006020828403121561057557610574610524565b5b60006105838482850161054a565b91505092915050565b61059581610529565b82525050565b60006020820190506105b0600083018461058c565b92915050565b600073ffffffffffffffffffffffffffffffffffffffff82169050919050565b6000819050919050565b60006105fb6105f66105f1846105b6565b6105d6565b6105b6565b9050919050565b600061060d826105e0565b9050919050565b600061061f82610602565b9050919050565b61062f81610614565b82525050565b600060208201905061064a6000830184610626565b92915050565b600061065b826105b6565b9050919050565b61066b81610650565b82525050565b60006020820190506106866000830184610662565b92915050565b60008151905061069b81610533565b92915050565b6000602082840312156106b7576106b6610524565b5b60006106c58482850161068c565b91505092915050565b60006040820190506106e36000830185610662565b6106f0602083018461058c565b9392505050565b60008115159050919050565b61070c816106f7565b811461071757600080fd5b50565b60008151905061072981610703565b92915050565b60006020828403121561074557610744610524565b5b60006107538482850161071a565b91505092915050565b7f4e487b7100000000000000000000000000000000000000000000000000000000600052601160045260246000fd5b600061079682610529565b91506107a183610529565b92508282019050808211156107b9576107b861075c565b5b92915050565b60006107ca82610529565b91506107d583610529565b92508282026107e381610529565b915082820484148315176107fa576107f961075c565b5b5092915050565b7f4e487b7100000000000000000000000000000000000000000000000000000000600052601260045260246000fd5b600061083b82610529565b915061084683610529565b92508261085657610855610801565b5b82820490509291505056fea2646970667358221220138c4b099c9ad53b5dfb0b6ee30b8a15d8b48172093a836e3e76d878fad809f764736f6c63430008130033",
  "immutableReferences": {},
  "source": "// SPDX-License-Identifier: GPL-3.0\r\npragma solidity ^0.8.4;\r\nimport './DeepToken.sol';\r\ncontract DeepTokenSale{\r\n    address admin;\r\n    DeepToken public tokenContract;\r\n    uint256 public tokenPrice;\r\n    uint256 public tokenSold;\r\n    event Sell(address _buyer , uint256 _amount);\r\n    constructor(DeepToken _tokenContract , uint256 _tokenPrice) {\r\n        admin = msg.sender; \r\n        tokenContract = _tokenContract;\r\n        tokenPrice = _tokenPrice;\r\n    }\r\n    function multiply(uint x , uint y) internal pure returns (uint z){\r\n        require(y==0|| (z = x*y)/x==y);\r\n    }\r\n    function buyTokens(uint256 _numberOfTokens) public payable{\r\n        require(msg.value == multiply( _numberOfTokens,tokenPrice));\r\n        require(tokenContract.balance_of(address(this)) >= _numberOfTokens);\r\n        require(tokenContract.transfer(msg.sender, _numberOfTokens));   \r\n        tokenSold+=_numberOfTokens;\r\n        emit Sell(msg.sender, _numberOfTokens);\r\n    }\r\n\r\n    function endSale () public{\r\n        require(msg.sender == admin);\r\n        require(tokenContract.transfer(admin, tokenContract.balance_of(address(this))));\r\n        address payable adminAddress = payable(address(uint160(admin)));\r\n        selfdestruct(adminAddress);\r\n    }\r\n}",
  "sourcePath": "C:\\Users\\alexm\\OneDrive\\Desktop\\BlockChain\\contracts\\DeepTokenSale.sol",
  "compiler": {
    "name": "solc",
    "version": "0.8.19+commit.7dd6d404.Emscripten.clang"
  },
  "schemaVersion": "3.4.13",
  "updatedAt": "2023-04-02T08:54:34.558Z",
  "networkType": "ethereum",
  "devdoc": {
    "kind": "dev",
    "methods": {},
    "version": 1
  },
  "userdoc": {
    "kind": "user",
    "methods": {},
    "version": 1
  }
}